{
    "contractName": "DAppMeeting",
    "abi": [
        {
            "inputs": [],
            "stateMutability": "nonpayable",
            "type": "constructor"
        },
        {
            "anonymous": false,
            "inputs": [
                {
                    "indexed": false,
                    "internalType": "string",
                    "name": "roomId",
                    "type": "string"
                },
                {
                    "indexed": false,
                    "internalType": "address",
                    "name": "sender",
                    "type": "address"
                },
                {
                    "indexed": false,
                    "internalType": "bytes",
                    "name": "eventData",
                    "type": "bytes"
                }
            ],
            "name": "EventForwardedToBackend",
            "type": "event"
        },
        {
            "anonymous": false,
            "inputs": [
                {
                    "indexed": false,
                    "internalType": "string",
                    "name": "roomId",
                    "type": "string"
                },
                {
                    "indexed": false,
                    "internalType": "address",
                    "name": "participant",
                    "type": "address"
                },
                {
                    "indexed": false,
                    "internalType": "bytes",
                    "name": "eventData",
                    "type": "bytes"
                }
            ],
            "name": "EventForwardedToFrontend",
            "type": "event"
        },
        {
            "anonymous": false,
            "inputs": [
                {
                    "indexed": false,
                    "internalType": "string",
                    "name": "roomId",
                    "type": "string"
                },
                {
                    "indexed": false,
                    "internalType": "address",
                    "name": "participant",
                    "type": "address"
                },
                {
                    "components": [
                        {
                            "internalType": "string",
                            "name": "trackName",
                            "type": "string"
                        },
                        {
                            "internalType": "string",
                            "name": "mid",
                            "type": "string"
                        },
                        {
                            "internalType": "string",
                            "name": "location",
                            "type": "string"
                        },
                        {
                            "internalType": "bool",
                            "name": "isPublished",
                            "type": "bool"
                        },
                        {
                            "internalType": "string",
                            "name": "sessionId",
                            "type": "string"
                        },
                        {
                            "internalType": "string",
                            "name": "roomId",
                            "type": "string"
                        }
                    ],
                    "indexed": false,
                    "internalType": "struct DAppMeeting.Track[]",
                    "name": "initialTracks",
                    "type": "tuple[]"
                },
                {
                    "indexed": false,
                    "internalType": "bytes",
                    "name": "sessionDescription",
                    "type": "bytes"
                }
            ],
            "name": "ParticipantJoined",
            "type": "event"
        },
        {
            "anonymous": false,
            "inputs": [
                {
                    "indexed": false,
                    "internalType": "string",
                    "name": "roomId",
                    "type": "string"
                },
                {
                    "indexed": false,
                    "internalType": "address",
                    "name": "participant",
                    "type": "address"
                }
            ],
            "name": "ParticipantLeft",
            "type": "event"
        },
        {
            "anonymous": false,
            "inputs": [
                {
                    "indexed": false,
                    "internalType": "string",
                    "name": "roomId",
                    "type": "string"
                },
                {
                    "indexed": false,
                    "internalType": "address",
                    "name": "participant",
                    "type": "address"
                },
                {
                    "indexed": false,
                    "internalType": "string",
                    "name": "trackName",
                    "type": "string"
                }
            ],
            "name": "TrackAdded",
            "type": "event"
        },
        {
            "inputs": [
                {
                    "internalType": "address",
                    "name": "_backend",
                    "type": "address"
                }
            ],
            "name": "addAuthorizedBackend",
            "outputs": [],
            "stateMutability": "nonpayable",
            "type": "function"
        },
        {
            "inputs": [
                {
                    "internalType": "string",
                    "name": "_roomId",
                    "type": "string"
                },
                {
                    "internalType": "address",
                    "name": "_participant",
                    "type": "address"
                },
                {
                    "internalType": "string",
                    "name": "_sessionId",
                    "type": "string"
                },
                {
                    "internalType": "string",
                    "name": "_trackName",
                    "type": "string"
                },
                {
                    "internalType": "string",
                    "name": "_mid",
                    "type": "string"
                },
                {
                    "internalType": "string",
                    "name": "_location",
                    "type": "string"
                },
                {
                    "internalType": "bool",
                    "name": "_isPublished",
                    "type": "bool"
                }
            ],
            "name": "addNewTrackAfterPublish",
            "outputs": [],
            "stateMutability": "nonpayable",
            "type": "function"
        },
        {
            "inputs": [
                {
                    "internalType": "string",
                    "name": "_roomId",
                    "type": "string"
                },
                {
                    "components": [
                        {
                            "internalType": "string",
                            "name": "trackName",
                            "type": "string"
                        },
                        {
                            "internalType": "string",
                            "name": "mid",
                            "type": "string"
                        },
                        {
                            "internalType": "string",
                            "name": "location",
                            "type": "string"
                        },
                        {
                            "internalType": "bool",
                            "name": "isPublished",
                            "type": "bool"
                        },
                        {
                            "internalType": "string",
                            "name": "sessionId",
                            "type": "string"
                        },
                        {
                            "internalType": "string",
                            "name": "roomId",
                            "type": "string"
                        }
                    ],
                    "internalType": "struct DAppMeeting.Track",
                    "name": "_newTrack",
                    "type": "tuple"
                }
            ],
            "name": "addTrack",
            "outputs": [],
            "stateMutability": "nonpayable",
            "type": "function"
        },
        {
            "inputs": [
                {
                    "internalType": "uint256",
                    "name": "",
                    "type": "uint256"
                }
            ],
            "name": "authorizedBackends",
            "outputs": [
                {
                    "internalType": "address",
                    "name": "",
                    "type": "address"
                }
            ],
            "stateMutability": "view",
            "type": "function"
        },
        {
            "inputs": [
                {
                    "internalType": "string",
                    "name": "_roomId",
                    "type": "string"
                }
            ],
            "name": "createRoom",
            "outputs": [],
            "stateMutability": "nonpayable",
            "type": "function"
        },
        {
            "inputs": [
                {
                    "internalType": "string",
                    "name": "_roomId",
                    "type": "string"
                },
                {
                    "internalType": "bytes",
                    "name": "_eventData",
                    "type": "bytes"
                }
            ],
            "name": "forwardEventToBackend",
            "outputs": [],
            "stateMutability": "nonpayable",
            "type": "function"
        },
        {
            "inputs": [
                {
                    "internalType": "string",
                    "name": "_roomId",
                    "type": "string"
                },
                {
                    "internalType": "address",
                    "name": "_participant",
                    "type": "address"
                },
                {
                    "internalType": "bytes",
                    "name": "_eventData",
                    "type": "bytes"
                }
            ],
            "name": "forwardEventToFrontend",
            "outputs": [],
            "stateMutability": "nonpayable",
            "type": "function"
        },
        {
            "inputs": [
                {
                    "internalType": "string",
                    "name": "_roomId",
                    "type": "string"
                }
            ],
            "name": "getParticipantInfo",
            "outputs": [
                {
                    "components": [
                        {
                            "internalType": "address",
                            "name": "walletAddress",
                            "type": "address"
                        },
                        {
                            "internalType": "string",
                            "name": "name",
                            "type": "string"
                        },
                        {
                            "internalType": "string",
                            "name": "sessionID",
                            "type": "string"
                        }
                    ],
                    "internalType": "struct DAppMeeting.Participant",
                    "name": "",
                    "type": "tuple"
                }
            ],
            "stateMutability": "view",
            "type": "function"
        },
        {
            "inputs": [
                {
                    "internalType": "string",
                    "name": "_roomId",
                    "type": "string"
                },
                {
                    "internalType": "address",
                    "name": "_participant",
                    "type": "address"
                }
            ],
            "name": "getParticipantTracks",
            "outputs": [
                {
                    "components": [
                        {
                            "internalType": "string",
                            "name": "trackName",
                            "type": "string"
                        },
                        {
                            "internalType": "string",
                            "name": "mid",
                            "type": "string"
                        },
                        {
                            "internalType": "string",
                            "name": "location",
                            "type": "string"
                        },
                        {
                            "internalType": "bool",
                            "name": "isPublished",
                            "type": "bool"
                        },
                        {
                            "internalType": "string",
                            "name": "sessionId",
                            "type": "string"
                        },
                        {
                            "internalType": "string",
                            "name": "roomId",
                            "type": "string"
                        }
                    ],
                    "internalType": "struct DAppMeeting.Track[]",
                    "name": "",
                    "type": "tuple[]"
                }
            ],
            "stateMutability": "view",
            "type": "function"
        },
        {
            "inputs": [
                {
                    "internalType": "string",
                    "name": "_roomId",
                    "type": "string"
                },
                {
                    "internalType": "address",
                    "name": "_participant",
                    "type": "address"
                }
            ],
            "name": "getParticipantTracksCount",
            "outputs": [
                {
                    "internalType": "uint256",
                    "name": "",
                    "type": "uint256"
                }
            ],
            "stateMutability": "view",
            "type": "function"
        },
        {
            "inputs": [
                {
                    "internalType": "string",
                    "name": "_roomId",
                    "type": "string"
                }
            ],
            "name": "getRoomParticipantsCount",
            "outputs": [
                {
                    "internalType": "uint256",
                    "name": "",
                    "type": "uint256"
                }
            ],
            "stateMutability": "view",
            "type": "function"
        },
        {
            "inputs": [
                {
                    "internalType": "string",
                    "name": "_roomId",
                    "type": "string"
                }
            ],
            "name": "getRoomParticipantsDetails",
            "outputs": [
                {
                    "components": [
                        {
                            "internalType": "address",
                            "name": "walletAddress",
                            "type": "address"
                        },
                        {
                            "internalType": "string",
                            "name": "name",
                            "type": "string"
                        },
                        {
                            "internalType": "string",
                            "name": "sessionID",
                            "type": "string"
                        },
                        {
                            "components": [
                                {
                                    "internalType": "string",
                                    "name": "trackName",
                                    "type": "string"
                                },
                                {
                                    "internalType": "string",
                                    "name": "mid",
                                    "type": "string"
                                },
                                {
                                    "internalType": "string",
                                    "name": "location",
                                    "type": "string"
                                },
                                {
                                    "internalType": "bool",
                                    "name": "isPublished",
                                    "type": "bool"
                                },
                                {
                                    "internalType": "string",
                                    "name": "sessionId",
                                    "type": "string"
                                },
                                {
                                    "internalType": "string",
                                    "name": "roomId",
                                    "type": "string"
                                }
                            ],
                            "internalType": "struct DAppMeeting.Track[]",
                            "name": "tracks",
                            "type": "tuple[]"
                        }
                    ],
                    "internalType": "struct DAppMeeting.ParticipantDetails[]",
                    "name": "",
                    "type": "tuple[]"
                }
            ],
            "stateMutability": "view",
            "type": "function"
        },
        {
            "inputs": [
                {
                    "internalType": "string",
                    "name": "_roomId",
                    "type": "string"
                },
                {
                    "internalType": "string",
                    "name": "_name",
                    "type": "string"
                },
                {
                    "components": [
                        {
                            "internalType": "string",
                            "name": "trackName",
                            "type": "string"
                        },
                        {
                            "internalType": "string",
                            "name": "mid",
                            "type": "string"
                        },
                        {
                            "internalType": "string",
                            "name": "location",
                            "type": "string"
                        },
                        {
                            "internalType": "bool",
                            "name": "isPublished",
                            "type": "bool"
                        },
                        {
                            "internalType": "string",
                            "name": "sessionId",
                            "type": "string"
                        },
                        {
                            "internalType": "string",
                            "name": "roomId",
                            "type": "string"
                        }
                    ],
                    "internalType": "struct DAppMeeting.Track[]",
                    "name": "_initialTracks",
                    "type": "tuple[]"
                },
                {
                    "internalType": "bytes",
                    "name": "sessionDescription",
                    "type": "bytes"
                }
            ],
            "name": "joinRoom",
            "outputs": [],
            "stateMutability": "nonpayable",
            "type": "function"
        },
        {
            "inputs": [
                {
                    "internalType": "string",
                    "name": "_roomId",
                    "type": "string"
                }
            ],
            "name": "leaveRoom",
            "outputs": [],
            "stateMutability": "nonpayable",
            "type": "function"
        },
        {
            "inputs": [],
            "name": "owner",
            "outputs": [
                {
                    "internalType": "address",
                    "name": "",
                    "type": "address"
                }
            ],
            "stateMutability": "view",
            "type": "function"
        },
        {
            "inputs": [
                {
                    "internalType": "string",
                    "name": "",
                    "type": "string"
                },
                {
                    "internalType": "address",
                    "name": "",
                    "type": "address"
                }
            ],
            "name": "participantIndices",
            "outputs": [
                {
                    "internalType": "uint256",
                    "name": "",
                    "type": "uint256"
                }
            ],
            "stateMutability": "view",
            "type": "function"
        },
        {
            "inputs": [
                {
                    "internalType": "string",
                    "name": "",
                    "type": "string"
                },
                {
                    "internalType": "address",
                    "name": "",
                    "type": "address"
                }
            ],
            "name": "participantTrackCount",
            "outputs": [
                {
                    "internalType": "uint256",
                    "name": "",
                    "type": "uint256"
                }
            ],
            "stateMutability": "view",
            "type": "function"
        },
        {
            "inputs": [
                {
                    "internalType": "string",
                    "name": "",
                    "type": "string"
                },
                {
                    "internalType": "address",
                    "name": "",
                    "type": "address"
                },
                {
                    "internalType": "uint256",
                    "name": "",
                    "type": "uint256"
                }
            ],
            "name": "participantTracks",
            "outputs": [
                {
                    "internalType": "string",
                    "name": "trackName",
                    "type": "string"
                },
                {
                    "internalType": "string",
                    "name": "mid",
                    "type": "string"
                },
                {
                    "internalType": "string",
                    "name": "location",
                    "type": "string"
                },
                {
                    "internalType": "bool",
                    "name": "isPublished",
                    "type": "bool"
                },
                {
                    "internalType": "string",
                    "name": "sessionId",
                    "type": "string"
                },
                {
                    "internalType": "string",
                    "name": "roomId",
                    "type": "string"
                }
            ],
            "stateMutability": "view",
            "type": "function"
        },
        {
            "inputs": [
                {
                    "internalType": "string",
                    "name": "",
                    "type": "string"
                },
                {
                    "internalType": "address",
                    "name": "",
                    "type": "address"
                }
            ],
            "name": "participantsInRoom",
            "outputs": [
                {
                    "internalType": "bool",
                    "name": "",
                    "type": "bool"
                }
            ],
            "stateMutability": "view",
            "type": "function"
        },
        {
            "inputs": [
                {
                    "internalType": "address",
                    "name": "_backend",
                    "type": "address"
                }
            ],
            "name": "removeAuthorizedBackend",
            "outputs": [],
            "stateMutability": "nonpayable",
            "type": "function"
        },
        {
            "inputs": [
                {
                    "internalType": "string",
                    "name": "",
                    "type": "string"
                }
            ],
            "name": "rooms",
            "outputs": [
                {
                    "internalType": "string",
                    "name": "roomId",
                    "type": "string"
                },
                {
                    "internalType": "uint256",
                    "name": "creationTime",
                    "type": "uint256"
                }
            ],
            "stateMutability": "view",
            "type": "function"
        },
        {
            "inputs": [
                {
                    "internalType": "string",
                    "name": "_roomId",
                    "type": "string"
                },
                {
                    "internalType": "address",
                    "name": "_participantAddress",
                    "type": "address"
                },
                {
                    "internalType": "string",
                    "name": "_sessionID",
                    "type": "string"
                }
            ],
            "name": "setParticipantSessionID",
            "outputs": [],
            "stateMutability": "nonpayable",
            "type": "function"
        }
    ],
    "bytecode": "6080806040523460a657600580546001600160a01b03191633179055600654680100000000000000008110156092576001810180600655811015607e5760065f527ff652222313e28459528d920b65115c16c04f3efc82aaedc97be59f3f377c0d3f0180546001600160a01b0319163317905561283590816100ab8239f35b634e487b7160e01b5f52603260045260245ffd5b634e487b7160e01b5f52604160045260245ffd5b5f80fdfe60806040526004361015610011575f80fd5b5f3560e01c806262b748146119fe5780631513e2bc1461181c5780632aba9dda146117cf5780633b4ddda81461168b5780633c2297791461130f5780633f2cc59f1461129657806347100107146112545780635b85facc146111305780637306d2dd14610f725780638da5cb5b14610f4a5780638df5894514610f025780639ba78fd914610e445780639debe88114610c16578063aaea818014610b38578063bb9af00d1461093c578063bbbcc869146108c3578063c3241b9514610814578063e970cf2c146106d5578063f2776d2e1461065f578063f3398cf614610534578063f7cc8724146104995763fab385431461010a575f80fd5b34610495576020366003190112610495576004356001600160401b0381116104955761013a903690600401611ab8565b604051610167610160835192602081818701958087835e81015f81520301902054611cb2565b1515611e71565b60405160208184518085835e8101600281520301902060018060a01b0333165f5260205261019b60ff60405f205416612459565b60405160208184518085835e8101600181520301902060018060a01b0333165f5260205260405f2054600260405160208186518087835e81015f81520301902001545f1981019081116103a55781106103e0575b50600260405160208185518086835e81015f81520301902001805480156103cc575f19019061021e82826124a5565b6103b9576002815f61023d9355610237600182016127b1565b016127b1565b5560405160208184518085835e8101600281520301902060018060a01b0333165f5260205260405f2060ff19815416905560405160208184518085835e8101600181520301902060018060a01b0333165f526020525f604081205560405160208184518085835e8101600381520301902060018060a01b0333165f5260205260405f208054905f81558161033c575b7fb4d5a3866c2b36a076b8cac89e6068deeff68398781315f07060bdead654e63b61033185856020604051809284518091835e8101600481520301902060018060a01b0333165f526020525f6040812055604051918291604083526040830190611d8a565b3360208301520390a1005b816006029160068304036103a5575f5260205f20908101905b818110156102cc57806103696006926127b1565b610375600182016127b1565b610381600282016127b1565b5f6003820155610393600482016127b1565b61039f600582016127b1565b01610355565b634e487b7160e01b5f52601160045260245ffd5b634e487b7160e01b5f525f60045260245ffd5b634e487b7160e01b5f52603160045260245ffd5b600260405160208186518087835e81015f81520301902001600260405160208187518088835e81015f8152030190200154905f1982019182116103a5576104309161042a916124a5565b506126c3565b61045b816104558460026040516020818b51808c835e81015f815203019020016124a5565b906124be565b60405160208186518087835e60019082019081520301902090516001600160a01b03165f90815260209190915260408120919091556101ef565b5f80fd5b34610495576104a736611b37565b906020604051916104d06101608251948481818601978089835e81015f81520301902054611cb2565b604051828183518087835e8101600281520301902060018060a01b0385165f52825261050260ff60405f205416611eb3565b604051928391518091835e810160048152030190209060018060a01b03165f52602052602060405f2054604051908152f35b34610495576060366003190112610495576004356001600160401b03811161049557610564903690600401611ab8565b61056c611b0b565b6044356001600160401b0381116104955761058b903690600401611ab8565b916040516105b2610160835192602081818701958087835e81015f81520301902054611cb2565b6020604051809284518091835e8101600281520301902060018060a01b0383165f5260205260ff60405f2054161561061a576106157fb588e6e55cc56c9ac78812d33d4f8fbbebe720ee569bed8fd4615ddb178fcb129360405193849384612422565b0390a1005b60405162461bcd60e51b815260206004820152601e60248201527f546172676574207061727469636970616e74206e6f7420696e20726f6f6d00006044820152606490fd5b3461049557602036600319011261049557610678611b21565b60065490600160401b8210156106c15761069b8260016106bf9401600655611c6d565b81546001600160a01b0393841660039290921b91821b9390911b1916919091179055565b005b634e487b7160e01b5f52604160045260245ffd5b34610495576020366003190112610495576004356001600160401b038111610495576107c961042a61070e610810933690600401611ab8565b60606040805161071d81611a61565b5f815282602082015201526002604051610750610160845192602081818801958087835e81015f81520301902054611cb2565b60405160208185518085835e81018581520301902060018060a01b0333165f5260205261078360ff60405f205416612459565b60405160208185518085835e8101600181520301902060018060a01b0333165f52602052602060405f205493604051928391518091835e81015f815203019020016124a5565b6040519182916020835260018060a01b03815116602084015260406107fc60208301516060838701526080860190611d8a565b910151838203601f19016060850152611d8a565b0390f35b346104955761082236611b37565b9060206040519161084b6101608251948481818601978089835e81015f81520301902054611cb2565b604051828183518087835e8101600281520301902060018060a01b0385165f52825261087d60ff60405f205416611eb3565b604051928391518091835e810160038152030190209060018060a01b03165f526020526108106108af60405f206126fc565b604051918291602083526020830190611dae565b34610495576020366003190112610495576004356001600160401b038111610495576020806108f9610932933690600401611ab8565b604051928184925191829101835e81015f815203019020600161091b82611cea565b910154604051928392604084526040840190611d8a565b9060208301520390f35b34610495576060366003190112610495576004356001600160401b0381116104955761096c903690600401611ab8565b610974611b0b565b906044356001600160401b038111610495576002918261099b610a3c933690600401611ab8565b94604051906109c3610160855193602081818901968088835e81015f81520301902054611cb2565b60405160208186518086835e81018681520301902060018060a01b0382165f526020526109f660ff60405f205416611eb3565b60405160208186518086835e810160018152030190209060018060a01b03165f52602052602060405f205493604051928391518091835e81015f815203019020016124a5565b500181516001600160401b0381116106c157610a588254611cb2565b601f8111610afd575b50602092601f8211600114610aa157610a92929382915f92610a96575b50508160011b915f199060031b1c19161790565b9055005b015190508480610a7e565b601f19821693835f52805f20915f5b868110610ae55750836001959610610acd575b505050811b019055005b01515f1960f88460031b161c19169055838080610ac3565b91926020600181928685015181550194019201610ab0565b610b2890835f5260205f20601f840160051c81019160208510610b2e575b601f0160051c0190611eff565b83610a61565b9091508190610b1b565b34610495576040366003190112610495576004356001600160401b03811161049557610b68903690600401611ab8565b602435906001600160401b03821161049557610ba97f5af2a6a9c8117113b24e80f03488d6bb6d93973b5faed013eca8657949140f1e923690600401611ab8565b90604051610bd0610160835192602081818701958087835e81015f81520301902054611cb2565b6020604051809284518091835e8101600281520301902060018060a01b0333165f52602052610c0560ff60405f205416612459565b610615604051928392339084612422565b34610495576020366003190112610495576004356001600160401b03811161049557610c46903690600401611ab8565b604051610c6c610160835192602081818701958087835e81015f81520301902054611cb2565b600260405160208185518086835e81015f815203019020015490610c8f82611c56565b92610c9d6040519485611a97565b828452601f19610cac84611c56565b015f5b818110610e135750505f5b838110610d6e57846040518091602082016020835281518091526040830190602060408260051b8601019301915f905b828210610cf957505050500390f35b91936001919395506020610d5e8192603f198a8203018652885190858060a01b0382511681526060610d4d610d3b868501516080888601526080850190611d8a565b60408501518482036040860152611d8a565b920151906060818403910152611dae565b9601920192018594939192610cea565b80610d9561042a60019360026040516020818951808c835e81015f815203019020016124a5565b610df2838060a01b0382511691604060208201519101516040516020818951808c835e81016003815203019020868060a01b0385165f5260205260405f209160405194610de186611a7c565b8552602085015260408401526126fc565b6060820152610e0182886126af565b52610e0c81876126af565b5001610cba565b602090604051610e2281611a7c565b5f81526060838201526060604082015260608082015282828901015201610caf565b3461049557602036600319011261049557610e5d611b21565b6001600160a01b03165f5b600654808210156106bf5782610e7d83611c6d565b905460039190911b1c6001600160a01b031614610e9d5750600101610e68565b5f198101925082116103a55761069b610eb8610ed093611c6d565b905460039190911b1c6001600160a01b031691611c6d565b60065480156103cc575f1901610ee581611c6d565b81546001600160a01b0360039290921b9190911b19169055600655005b3461049557602080610f1336611b37565b9290604051928184925191829101835e810160018152030190209060018060a01b03165f52602052602060405f2054604051908152f35b34610495575f366003190112610495576005546040516001600160a01b039091168152602090f35b34610495576020366003190112610495576004356001600160401b03811161049557610fa2903690600401611ab8565b60405190610fc6815192602081818501958087835e81015f81520301902054611cb2565b6110f55760405160208183518086835e81015f815203019020918151926001600160401b0384116106c157610ffb8154611cb2565b601f81116110c5575b50602093601f8111600114611062578061103691600195965f91611057575b508160011b915f199060031b1c19161790565b90555b60405192518091845e8201915f835260208142940301902001555f80f35b905086015187611023565b93601f19851690825f52805f20915f5b8181106110ad575091869160019697879410611095575b5050811b019055611039565b8701515f1960f88460031b161c191690558680611089565b86830151845560019093019260209283019201611072565b6110ef90825f5260205f20601f870160051c81019160208810610b2e57601f0160051c0190611eff565b84611004565b60405162461bcd60e51b8152602060048201526013602482015272526f6f6d20616c72656164792065786973747360681b6044820152606490fd5b34610495576060366003190112610495576004356001600160401b03811161049557611160903690600401611ab8565b611168611b0b565b604051825160443593602091839181908401835e810160038152030190209060018060a01b03165f5260205260405f20805482101561049557611215916111ae91611c99565b506108106111bb82611cea565b916112466111cb60018301611cea565b916111d860028201611cea565b9061123160ff6003830154169261122361120060056111f960048701611cea565b9501611cea565b966040519a8b9a60c08c5260c08c0190611d8a565b908a820360208c0152611d8a565b9088820360408a0152611d8a565b91151560608701528582036080870152611d8a565b9083820360a0850152611d8a565b34610495576020366003190112610495576004356006548110156104955761127d602091611c6d565b905460405160039290921b1c6001600160a01b03168152f35b34610495576020366003190112610495576004356001600160401b0381116104955760026112ca6020923690600401611ab8565b82604051916112f16101608251948481818601978089835e81015f81520301902054611cb2565b604051928391518091835e81015f8152030190200154604051908152f35b34610495576080366003190112610495576004356001600160401b0381116104955761133f903690600401611ab8565b6024356001600160401b0381116104955761135e903690600401611ab8565b90604435906001600160401b038211610495573660238301121561049557816004013561138a81611c56565b926113986040519485611a97565b8184526024602085019260051b820101903682116104955760248101925b82841061165c57505050506064356001600160401b038111610495576113e0903690600401611ab8565b6040519361140761016084519660208181880199808b835e81015f81520301902054611cb2565b60405160208185518089835e8101600281520301902060018060a01b0333165f5260205260ff60405f205416611625576040519061144482611a61565b338252602082015260209060405161145c8382611a97565b5f81526040820152600260405183818751808b835e81015f8152030190200190815491600160401b8310156106c1578261045591600161149e950181556124a5565b600260405182818651808a835e81015f81520301902001545f1981019081116103a55760409492945182818651808a835e8101600181520301902060018060a01b0333165f52825260405f2055604051818185518089835e600290820190815203019020335f81815291835260408220805460ff1916600117905592905b81518110156115c257807f989240cc5cb309e91c68e61536b623e192afd2de138e3f69b3eed730d574bfda6115b9611556600194866126af565b5160405187818d8c518091835e81016003815203019020885f52875261157f8160405f20611f15565b60405187818d8c518091835e81016004815203019020885f52875260405f206115a88154612414565b905551604051918291338b84612422565b0390a10161151c565b7f21e27f169d16f9bc6b07bf8a2c343f07f22bfd14122a3181cf25419574f0109b61160486610615896116178888604051968796608088526080880190611d8a565b9133908701528582036040870152611dae565b908382036060850152611d8a565b60405162461bcd60e51b815260206004820152600f60248201526e416c726561647920696e20726f6f6d60881b6044820152606490fd5b83356001600160401b03811161049557602091611680839260243691870101611b78565b8152019301926113b6565b34610495576040366003190112610495576004356001600160401b038111610495576116bb903690600401611ab8565b602435906001600160401b038211610495576116fc7f989240cc5cb309e91c68e61536b623e192afd2de138e3f69b3eed730d574bfda923690600401611b78565b604051611722610160845192602081818801958087835e81015f81520301902054611cb2565b60405160208185518085835e8101600281520301902060018060a01b0333165f5260205261175660ff60405f205416612459565b60405160208185518085835e8101600381520301902060018060a01b0333165f526020526117878260405f20611f15565b6020604051809285518091835e8101600481520301902060018060a01b0333165f5260205260405f206117ba8154612414565b90555190610615604051928392339084612422565b34610495576020806117e036611b37565b9290604051928184925191829101835e810160028152030190209060018060a01b03165f52602052602060ff60405f2054166040519015158152f35b346104955760e0366003190112610495576004356001600160401b0381116104955761184c903690600401611ab8565b611854611b0b565b6044356001600160401b03811161049557611873903690600401611ab8565b916064356001600160401b03811161049557611893903690600401611ab8565b926084356001600160401b038111610495576118b3903690600401611ab8565b9360a4356001600160401b038111610495576118d3903690600401611ab8565b60c43590811515809203610495577f989240cc5cb309e91c68e61536b623e192afd2de138e3f69b3eed730d574bfda966106159486936119bd93611932610160604051602081818b519b019a808c835e81015f81520301902054611cb2565b6040516020818b51808a835e8101600281520301902060018060a01b038b165f5260205261196660ff60405f205416611eb3565b6040519361197385611a46565b87855260208501526040840152606083015260808201528560a082015260405160208188518087835e8101600381520301902060018060a01b0388165f5260205260405f20611f15565b6020604051809286518091835e8101600481520301902060018060a01b0385165f5260205260405f206119f08154612414565b905560405193849384612422565b3461049557602080611a0f36611b37565b9290604051928184925191829101835e810160048152030190209060018060a01b03165f52602052602060405f2054604051908152f35b60c081019081106001600160401b038211176106c157604052565b606081019081106001600160401b038211176106c157604052565b608081019081106001600160401b038211176106c157604052565b90601f801991011681019081106001600160401b038211176106c157604052565b81601f82011215610495576020813591016001600160401b0382116106c15760405192611aef601f8401601f191660200185611a97565b8284528282011161049557815f92602092838601378301015290565b602435906001600160a01b038216820361049557565b600435906001600160a01b038216820361049557565b604060031982011261049557600435906001600160401b03821161049557611b6191600401611ab8565b906024356001600160a01b03811681036104955790565b919060c0838203126104955760405190611b9182611a46565b819380356001600160401b0381116104955782611baf918301611ab8565b835260208101356001600160401b0381116104955782611bd0918301611ab8565b602084015260408101356001600160401b0381116104955782611bf4918301611ab8565b60408401526060810135801515810361049557606084015260808101356001600160401b0381116104955782611c2b918301611ab8565b608084015260a0810135916001600160401b0383116104955760a092611c519201611ab8565b910152565b6001600160401b0381116106c15760051b60200190565b600654811015611c855760065f5260205f2001905f90565b634e487b7160e01b5f52603260045260245ffd5b8054821015611c85575f52600660205f20910201905f90565b90600182811c92168015611ce0575b6020831014611ccc57565b634e487b7160e01b5f52602260045260245ffd5b91607f1691611cc1565b9060405191825f825492611cfd84611cb2565b8084529360018116908115611d685750600114611d24575b50611d2292500383611a97565b565b90505f9291925260205f20905f915b818310611d4c575050906020611d22928201015f611d15565b6020919350806001915483858901015201910190918492611d33565b905060209250611d2294915060ff191682840152151560051b8201015f611d15565b805180835260209291819084018484015e5f828201840152601f01601f1916010190565b9080602083519182815201916020808360051b8301019401925f915b838310611dd957505050505090565b9091929394602080611e62600193601f1986820301875289519060a0611e51611e33611e21611e11865160c0875260c0870190611d8a565b888701518682038a880152611d8a565b60408601518582036040870152611d8a565b60608501511515606085015260808501518482036080860152611d8a565b9201519060a0818403910152611d8a565b97019301930191939290611dca565b15611e7857565b60405162461bcd60e51b8152602060048201526013602482015272149bdbdb48191bd95cc81b9bdd08195e1a5cdd606a1b6044820152606490fd5b15611eba57565b60405162461bcd60e51b815260206004820152601760248201527f5061727469636970616e74206e6f7420696e20726f6f6d0000000000000000006044820152606490fd5b818110611f0a575050565b5f8155600101611eff565b8054600160401b8110156106c157611f3291600182018155611c99565b9290926103b95781519283516001600160401b0381116106c157611f568254611cb2565b601f81116123e4575b50602094601f821160011461238357611f919293949582915f9261212b5750508160011b915f199060031b1c19161790565b81555b6001810160208401518051906001600160401b0382116106c157611fb88354611cb2565b601f8111612353575b50602090601f83116001146122f057611ff092915f918361212b5750508160011b915f199060031b1c19161790565b90555b6002810160408401518051906001600160401b0382116106c1576120178354611cb2565b601f81116122c0575b50602090601f831160011461225d5761204f92915f918361212b5750508160011b915f199060031b1c19161790565b90555b600381016060840151151560ff801983541691161790556004810160808401518051906001600160401b0382116106c15761208d8354611cb2565b601f811161222d575b50602090601f83116001146121c4578260a09593600595936120cc935f9261212b5750508160011b915f199060031b1c19161790565b90555b019201519182516001600160401b0381116106c1576120ee8254611cb2565b601f8111612194575b506020601f82116001146121365781906121279394955f9261212b5750508160011b915f199060031b1c19161790565b9055565b015190505f80610a7e565b601f19821690835f52805f20915f5b81811061217c57509583600195969710612164575b505050811b019055565b01515f1960f88460031b161c191690555f808061215a565b9192602060018192868b015181550194019201612145565b6121be90835f5260205f20601f840160051c81019160208510610b2e57601f0160051c0190611eff565b5f6120f7565b90601f19831691845f52815f20925f5b818110612215575092600192859260a0989660059896106121fd575b505050811b0190556120cf565b01515f1960f88460031b161c191690555f80806121f0565b929360206001819287860151815501950193016121d4565b61225790845f5260205f20601f850160051c81019160208610610b2e57601f0160051c0190611eff565b5f612096565b90601f19831691845f52815f20925f5b8181106122a85750908460019594939210612290575b505050811b019055612052565b01515f1960f88460031b161c191690555f8080612283565b9293602060018192878601518155019501930161226d565b6122ea90845f5260205f20601f850160051c81019160208610610b2e57601f0160051c0190611eff565b5f612020565b90601f19831691845f52815f20925f5b81811061233b5750908460019594939210612323575b505050811b019055611ff3565b01515f1960f88460031b161c191690555f8080612316565b92936020600181928786015181550195019301612300565b61237d90845f5260205f20601f850160051c81019160208610610b2e57601f0160051c0190611eff565b5f611fc1565b601f19821695835f52805f20915f5b8881106123cc575083600195969798106123b4575b505050811b018155611f94565b01515f1960f88460031b161c191690555f80806123a7565b91926020600181928685015181550194019201612392565b61240e90835f5260205f20601f840160051c81019160208510610b2e57601f0160051c0190611eff565b5f611f5f565b5f1981146103a55760010190565b6124386124569492606083526060830190611d8a565b6001600160a01b039093166020820152808303604090910152611d8a565b90565b1561246057565b60405162461bcd60e51b815260206004820152601860248201527f596f7520617265206e6f7420696e207468697320726f6f6d00000000000000006044820152606490fd5b8054821015611c85575f52600360205f20910201905f90565b909291926103b957825181546001600160a01b0319166001600160a01b03919091161781556020830151805160018301916001600160401b0382116106c1576125078354611cb2565b601f811161267f575b50602090601f831160011461261657826040959360029593612546935f9261212b5750508160011b915f199060031b1c19161790565b90555b019201519182516001600160401b0381116106c1576125688254611cb2565b601f81116125e6575b506020601f82116001146125a15781906121279394955f9261212b5750508160011b915f199060031b1c19161790565b601f19821690835f52805f20915f5b8181106125ce5750958360019596971061216457505050811b019055565b9192602060018192868b0151815501940192016125b0565b61261090835f5260205f20601f840160051c81019160208510610b2e57601f0160051c0190611eff565b5f612571565b90601f19831691845f52815f20925f5b818110612667575092600192859260409896600298961061264f575b505050811b019055612549565b01515f1960f88460031b161c191690555f8080612642565b92936020600181928786015181550195019301612626565b6126a990845f5260205f20601f850160051c81019160208610610b2e57601f0160051c0190611eff565b5f612510565b8051821015611c855760209160051b010190565b906040516126d081611a61565b6040611c516002839560018060a01b0381541685526126f160018201611cea565b602086015201611cea565b90815461270881611c56565b926127166040519485611a97565b81845260208401905f5260205f205f915b8383106127345750505050565b6006602060019260405161274781611a46565b61275086611cea565b815261275d858701611cea565b8382015261276d60028701611cea565b604082015260ff6003870154161515606082015261278d60048701611cea565b608082015261279e60058701611cea565b60a0820152815201920192019190612727565b6127bb8154611cb2565b90816127c5575050565b81601f5f93116001146127d6575055565b818352602083206127f291601f0160051c810190600101611eff565b808252816020812091555556fea264697066735822122083ca974c5a7d1bfc79f111260ce950693367033b187fc171d5eb72a447fb11f464736f6c634300081d0033",
    "sourcePath": "d:/DAppMeetingNew/smartconstract/meeting.sol",
    "compiler": {
        "name": "solc",
        "version": "0.8.29+commit.ab55807c"
    },
    "functionHashes": {
        "addAuthorizedBackend(address)": "f2776d2e",
        "addNewTrackAfterPublish(string,address,string,string,string,string,bool)": "1513e2bc",
        "addTrack(string,(string,string,string,bool,string,string))": "3b4ddda8",
        "authorizedBackends(uint256)": "47100107",
        "createRoom(string)": "7306d2dd",
        "forwardEventToBackend(string,bytes)": "aaea8180",
        "forwardEventToFrontend(string,address,bytes)": "f3398cf6",
        "getParticipantInfo(string)": "e970cf2c",
        "getParticipantTracks(string,address)": "c3241b95",
        "getParticipantTracksCount(string,address)": "f7cc8724",
        "getRoomParticipantsCount(string)": "3f2cc59f",
        "getRoomParticipantsDetails(string)": "9debe881",
        "joinRoom(string,string,(string,string,string,bool,string,string)[],bytes)": "3c229779",
        "leaveRoom(string)": "fab38543",
        "owner()": "8da5cb5b",
        "participantIndices(string,address)": "8df58945",
        "participantTrackCount(string,address)": "0062b748",
        "participantTracks(string,address,uint256)": "5b85facc",
        "participantsInRoom(string,address)": "2aba9dda",
        "removeAuthorizedBackend(address)": "9ba78fd9",
        "rooms(string)": "bbbcc869",
        "setParticipantSessionID(string,address,string)": "bb9af00d"
    },
    "gasEstimates": {
        "creation": {
            "codeDepositCost": "2058600",
            "executionCost": "74942",
            "totalCost": "2133542"
        },
        "external": {
            "addAuthorizedBackend(address)": "51348",
            "addNewTrackAfterPublish(string,address,string,string,string,string,bool)": "infinite",
            "addTrack(string,(string,string,string,bool,string,string))": "infinite",
            "authorizedBackends(uint256)": "6757",
            "createRoom(string)": "infinite",
            "forwardEventToBackend(string,bytes)": "infinite",
            "forwardEventToFrontend(string,address,bytes)": "infinite",
            "getParticipantInfo(string)": "infinite",
            "getParticipantTracks(string,address)": "infinite",
            "getParticipantTracksCount(string,address)": "infinite",
            "getRoomParticipantsCount(string)": "infinite",
            "getRoomParticipantsDetails(string)": "infinite",
            "joinRoom(string,string,(string,string,string,bool,string,string)[],bytes)": "infinite",
            "leaveRoom(string)": "infinite",
            "owner()": "2470",
            "participantIndices(string,address)": "infinite",
            "participantTrackCount(string,address)": "infinite",
            "participantTracks(string,address,uint256)": "infinite",
            "participantsInRoom(string,address)": "infinite",
            "removeAuthorizedBackend(address)": "infinite",
            "rooms(string)": "infinite",
            "setParticipantSessionID(string,address,string)": "infinite"
        }
    }
}